{
  "address": "0xB0b4Cf8587E2d983D17b1f9B448Bc9d80de78D07",
  "abi": [
    {
      "anonymous": false,
      "inputs": [
        {
          "indexed": true,
          "internalType": "address",
          "name": "previousOwner",
          "type": "address"
        },
        {
          "indexed": true,
          "internalType": "address",
          "name": "newOwner",
          "type": "address"
        }
      ],
      "name": "OwnershipTransferred",
      "type": "event"
    },
    {
      "inputs": [
        {
          "internalType": "uint256",
          "name": "tierId",
          "type": "uint256"
        },
        {
          "internalType": "address",
          "name": "minter",
          "type": "address"
        },
        {
          "internalType": "uint256",
          "name": "maxAllowance",
          "type": "uint256"
        },
        {
          "internalType": "bytes32[]",
          "name": "proof",
          "type": "bytes32[]"
        }
      ],
      "name": "eligibleForTier",
      "outputs": [
        {
          "internalType": "uint256",
          "name": "maxMintable",
          "type": "uint256"
        }
      ],
      "stateMutability": "view",
      "type": "function"
    },
    {
      "inputs": [
        {
          "internalType": "uint256",
          "name": "tierId",
          "type": "uint256"
        },
        {
          "internalType": "uint256",
          "name": "count",
          "type": "uint256"
        },
        {
          "internalType": "uint256",
          "name": "maxAllowance",
          "type": "uint256"
        },
        {
          "internalType": "bytes32[]",
          "name": "proof",
          "type": "bytes32[]"
        }
      ],
      "name": "mintByTier",
      "outputs": [],
      "stateMutability": "payable",
      "type": "function"
    },
    {
      "inputs": [
        {
          "internalType": "uint256",
          "name": "tierId",
          "type": "uint256"
        },
        {
          "internalType": "address",
          "name": "minter",
          "type": "address"
        },
        {
          "internalType": "uint256",
          "name": "maxAllowance",
          "type": "uint256"
        },
        {
          "internalType": "bytes32[]",
          "name": "proof",
          "type": "bytes32[]"
        }
      ],
      "name": "onTierAllowlist",
      "outputs": [
        {
          "internalType": "bool",
          "name": "",
          "type": "bool"
        }
      ],
      "stateMutability": "view",
      "type": "function"
    },
    {
      "inputs": [
        {
          "internalType": "uint256",
          "name": "tierId",
          "type": "uint256"
        }
      ],
      "name": "remainingForTier",
      "outputs": [
        {
          "internalType": "uint256",
          "name": "",
          "type": "uint256"
        }
      ],
      "stateMutability": "view",
      "type": "function"
    },
    {
      "inputs": [],
      "name": "reservedMints",
      "outputs": [
        {
          "internalType": "uint256",
          "name": "",
          "type": "uint256"
        }
      ],
      "stateMutability": "view",
      "type": "function"
    },
    {
      "inputs": [
        {
          "internalType": "address",
          "name": "firstToken",
          "type": "address"
        },
        {
          "internalType": "address",
          "name": "secondToken",
          "type": "address"
        }
      ],
      "name": "setTargetTokens",
      "outputs": [],
      "stateMutability": "nonpayable",
      "type": "function"
    },
    {
      "inputs": [
        {
          "internalType": "uint256",
          "name": "tierId",
          "type": "uint256"
        }
      ],
      "name": "tierMints",
      "outputs": [
        {
          "internalType": "uint256",
          "name": "",
          "type": "uint256"
        }
      ],
      "stateMutability": "view",
      "type": "function"
    },
    {
      "inputs": [
        {
          "internalType": "uint256",
          "name": "tierId",
          "type": "uint256"
        }
      ],
      "name": "tiers",
      "outputs": [
        {
          "components": [
            {
              "internalType": "uint256",
              "name": "start",
              "type": "uint256"
            },
            {
              "internalType": "uint256",
              "name": "end",
              "type": "uint256"
            },
            {
              "internalType": "address",
              "name": "currency",
              "type": "address"
            },
            {
              "internalType": "uint256",
              "name": "price",
              "type": "uint256"
            },
            {
              "internalType": "uint256",
              "name": "maxPerWallet",
              "type": "uint256"
            },
            {
              "internalType": "bytes32",
              "name": "merkleRoot",
              "type": "bytes32"
            },
            {
              "internalType": "uint256",
              "name": "reserved",
              "type": "uint256"
            },
            {
              "internalType": "uint256",
              "name": "maxAllocation",
              "type": "uint256"
            }
          ],
          "internalType": "struct ITieredSalesInternal.Tier",
          "name": "",
          "type": "tuple"
        }
      ],
      "stateMutability": "view",
      "type": "function"
    },
    {
      "inputs": [],
      "name": "totalReserved",
      "outputs": [
        {
          "internalType": "uint256",
          "name": "",
          "type": "uint256"
        }
      ],
      "stateMutability": "view",
      "type": "function"
    },
    {
      "inputs": [
        {
          "internalType": "uint256",
          "name": "tierId",
          "type": "uint256"
        },
        {
          "internalType": "address",
          "name": "wallet",
          "type": "address"
        }
      ],
      "name": "walletMintedByTier",
      "outputs": [
        {
          "internalType": "uint256",
          "name": "",
          "type": "uint256"
        }
      ],
      "stateMutability": "view",
      "type": "function"
    }
  ],
  "transactionHash": "0x33e14967409cfb888943b7303044a9a8a2523f11e75b5e89bd299b336ece4f6d",
  "args": [],
  "numDeployments": 6,
  "solcInputHash": "fadc79761c001791cba6c364fe2e3290",
  "bytecode": "0x608060405234801561001057600080fd5b506001600055611229806100256000396000f3fe6080604052600436106100b15760003560e01c80635897f8781161006957806368c7d37c1161004e57806368c7d37c1461028e578063bd2c18f7146102be578063c71b0e1c146102de57600080fd5b80635897f8781461025b5780635ea2c91b1461027b57600080fd5b80631123f2ef1161009a5780631123f2ef1461016b5780632cb9b2ac146101db57806353367f081461020f57600080fd5b8063039af9eb146100b65780630af7a51014610149575b600080fd5b3480156100c257600080fd5b506100d66100d1366004610fbb565b610312565b604051610140919060006101008201905082518252602083015160208301526001600160a01b036040840151166040830152606083015160608301526080830151608083015260a083015160a083015260c083015160c083015260e083015160e083015292915050565b60405180910390f35b34801561015557600080fd5b50610169610164366004610ff0565b6103fc565b005b34801561017757600080fd5b506101cd610186366004611023565b60009182527fb7471df0c7246ed3d4a380504edfbb03f5845b709c7716243791636e4ba46cbf602090815260408084206001600160a01b0393909316845291905290205490565b604051908152602001610140565b3480156101e757600080fd5b507fb7471df0c7246ed3d4a380504edfbb03f5845b709c7716243791636e4ba46cbc546101cd565b34801561021b57600080fd5b506101cd61022a366004610fbb565b60009081527fb7471df0c7246ed3d4a380504edfbb03f5845b709c7716243791636e4ba46cbe602052604090205490565b34801561026757600080fd5b506101cd610276366004610fbb565b6104fe565b610169610289366004611092565b610575565b34801561029a57600080fd5b506102ae6102a93660046110f3565b610740565b6040519015158152602001610140565b3480156102ca57600080fd5b506101cd6102d93660046110f3565b610759565b3480156102ea57600080fd5b507fb7471df0c7246ed3d4a380504edfbb03f5845b709c7716243791636e4ba46cbb546101cd565b610366604051806101000160405280600081526020016000815260200160006001600160a01b0316815260200160008152602001600081526020016000801916815260200160008152602001600081525090565b5060009081527fb7471df0c7246ed3d4a380504edfbb03f5845b709c7716243791636e4ba46cbd60209081526040918290208251610100810184528154815260018201549281019290925260028101546001600160a01b0316928201929092526003820154606082015260048201546080820152600582015460a0820152600682015460c082015260079091015460e082015290565b7fc0ea367cb0174dd5521cd2372c76f8c13e6c1f832c71f1d6e0cbc185c9cc8ed4546001600160a01b0316331461047a5760405162461bcd60e51b815260206004820152601d60248201527f4f776e61626c653a2073656e646572206d757374206265206f776e657200000060448201526064015b60405180910390fd5b7f29076d6fec33d3367960b20e90f32c6706ebfb45150130b825182449f8dde64780546001600160a01b039384167fffffffffffffffffffffffff0000000000000000000000000000000000000000918216179091557f29076d6fec33d3367960b20e90f32c6706ebfb45150130b825182449f8dde6488054929093169116179055565b60007fb7471df0c7246ed3d4a380504edfbb03f5845b709c7716243791636e4ba46cbb8161052b8461078c565b600085815260038401602090815260408083205460028701909252822060070154929350909161055b9190611154565b90508082101561056d57509392505050565b949350505050565b6002600054036105c75760405162461bcd60e51b815260206004820152601f60248201527f5265656e7472616e637947756172643a207265656e7472616e742063616c6c006044820152606401610471565b60026000556105d98585858585610844565b7f29076d6fec33d3367960b20e90f32c6706ebfb45150130b825182449f8dde647546001600160a01b03166358476a7a336040517fffffffff0000000000000000000000000000000000000000000000000000000060e084901b1681526001600160a01b03909116600482015260248101879052604401600060405180830381600087803b15801561066a57600080fd5b505af115801561067e573d6000803e3d6000fd5b505050506106a97f29076d6fec33d3367960b20e90f32c6706ebfb45150130b825182449f8dde64790565b600101546001600160a01b03166358476a7a336040517fffffffff0000000000000000000000000000000000000000000000000000000060e084901b1681526001600160a01b03909116600482015260248101879052604401600060405180830381600087803b15801561071c57600080fd5b505af1158015610730573d6000803e3d6000fd5b5050600160005550505050505050565b600061074f8686868686610b98565b9695505050505050565b600061074f8686868686610c54565b7fb7471df0c7246ed3d4a380504edfbb03f5845b709c7716243791636e4ba46cbb90565b7fb7471df0c7246ed3d4a380504edfbb03f5845b709c7716243791636e4ba46cbc547fb7471df0c7246ed3d4a380504edfbb03f5845b709c7716243791636e4ba46cbb80546000926107dd91611154565b6107e990600019611154565b60008481526002830160205260409020600601549092501561083e57600083815260038201602090815260408083205460028501909252909120600601546108319190611154565b61083b908361116b565b91505b50919050565b3360006108548783878787610c54565b90507fb7471df0c7246ed3d4a380504edfbb03f5845b709c7716243791636e4ba46cbb818711156108c75760405162461bcd60e51b815260206004820152600b60248201527f455843454544535f4d41580000000000000000000000000000000000000000006044820152606401610471565b6108d08861078c565b87111561091f5760405162461bcd60e51b815260206004820152600e60248201527f455843454544535f535550504c590000000000000000000000000000000000006044820152606401610471565b6000888152600282016020908152604080832060070154600385019092529091205461094b908961116b565b11156109995760405162461bcd60e51b815260206004820152601260248201527f455843454544535f414c4c4f434154494f4e00000000000000000000000000006044820152606401610471565b60008881526002808301602052604090912001546001600160a01b0316610a2e57600088815260028201602052604090206003015434906109db908990611183565b1115610a295760405162461bcd60e51b815260206004820152601360248201527f494e53554646494349454e545f414d4f554e54000000000000000000000000006044820152606401610471565b610afd565b600088815260028083016020526040909120908101546003909101546001600160a01b03909116906323b872dd9085903090610a6b908c90611183565b6040517fffffffff0000000000000000000000000000000000000000000000000000000060e086901b1681526001600160a01b03938416600482015292909116602483015260448201526064016020604051808303816000875af1158015610ad7573d6000803e3d6000fd5b505050506040513d601f19601f82011682018060405250810190610afb91906111a2565b505b600088815260048201602090815260408083206001600160a01b038716845290915281208054899290610b3190849061116b565b9091555050600088815260038201602052604081208054899290610b5690849061116b565b9091555050600088815260028201602052604090206006015415610b8e5786816001016000828254610b88919061116b565b90915550505b5050505050505050565b600061074f838380806020026020016040519081016040528093929190818152602001838360200280828437600092019190915250610bda9250610768915050565b60008981526002919091016020526040902060050154610c4f88886040517fffffffffffffffffffffffffffffffffffffffff000000000000000000000000606084901b1660208201526034810182905260009060540160405160208183030381529060405280519060200120905092915050565b610f26565b60008581527fb7471df0c7246ed3d4a380504edfbb03f5845b709c7716243791636e4ba46cbd60205260408120600401547fb7471df0c7246ed3d4a380504edfbb03f5845b709c7716243791636e4ba46cbb90610cf35760405162461bcd60e51b815260206004820152600a60248201527f4e4f545f455849535453000000000000000000000000000000000000000000006044820152606401610471565b6000878152600282016020526040902054421015610d535760405162461bcd60e51b815260206004820152600b60248201527f4e4f545f535441525445440000000000000000000000000000000000000000006044820152606401610471565b6000878152600282016020526040902060010154421115610db65760405162461bcd60e51b815260206004820152600d60248201527f414c52454144595f454e444544000000000000000000000000000000000000006044820152606401610471565b60008781526004808301602090815260408084206001600160a01b038b1685528252808420548b8552600286019092529092200154610df59190611154565b600088815260028301602052604090206005015490925015610f1c57600087815260048201602090815260408083206001600160a01b038a1684529091529020548511610e845760405162461bcd60e51b815260206004820152600f60248201527f4d415845445f414c4c4f57414e434500000000000000000000000000000000006044820152606401610471565b610e918787878787610b98565b610edd5760405162461bcd60e51b815260206004820152600f60248201527f4e4f545f414c4c4f574c495354454400000000000000000000000000000000006044820152606401610471565b600087815260048201602090815260408083206001600160a01b038a168452909152812054610f0c9087611154565b905080831115610f1a578092505b505b5095945050505050565b600082610f338584610f3c565b14949350505050565b600081815b8451811015610f8157610f6d82868381518110610f6057610f606111c4565b6020026020010151610f89565b915080610f79816111da565b915050610f41565b509392505050565b6000818310610fa5576000828152602084905260409020610fb4565b60008381526020839052604090205b9392505050565b600060208284031215610fcd57600080fd5b5035919050565b80356001600160a01b0381168114610feb57600080fd5b919050565b6000806040838503121561100357600080fd5b61100c83610fd4565b915061101a60208401610fd4565b90509250929050565b6000806040838503121561103657600080fd5b8235915061101a60208401610fd4565b60008083601f84011261105857600080fd5b50813567ffffffffffffffff81111561107057600080fd5b6020830191508360208260051b850101111561108b57600080fd5b9250929050565b6000806000806000608086880312156110aa57600080fd5b853594506020860135935060408601359250606086013567ffffffffffffffff8111156110d657600080fd5b6110e288828901611046565b969995985093965092949392505050565b60008060008060006080868803121561110b57600080fd5b8535945061111b60208701610fd4565b935060408601359250606086013567ffffffffffffffff8111156110d657600080fd5b634e487b7160e01b600052601160045260246000fd5b6000828210156111665761116661113e565b500390565b6000821982111561117e5761117e61113e565b500190565b600081600019048311821515161561119d5761119d61113e565b500290565b6000602082840312156111b457600080fd5b81518015158114610fb457600080fd5b634e487b7160e01b600052603260045260246000fd5b6000600182016111ec576111ec61113e565b506001019056fea2646970667358221220c3b27890dee927358e4b10162ae0f41f4d3b9ee74e2b8a2ed6eb4cce563eebd164736f6c634300080f0033",
  "devdoc": {
    "custom:category": "NFTs",
    "custom:provides-interfaces": "ITieredSales",
    "custom:type": "eip-2535-facet",
    "kind": "dev",
    "methods": {},
    "title": "My Custom Tiered Sales",
    "version": 1
  },
  "userdoc": {
    "kind": "user",
    "methods": {
      "mintByTier(uint256,uint256,uint256,bytes32[])": {
        "notice": "(3) Customize the \"mintByTier\" method. This custom facet contract extends TieredSales, which needs us to define what sales logic we want when users are minting a specific tier."
      },
      "setTargetTokens(address,address)": {
        "notice": "(2) Define custom functions You can put privileged functions (using Ownable or role-based AccessControl) here."
      }
    },
    "notice": "This is developed in-house to provide custom sales mechanism for our custom project.",
    "version": 1
  },
  "storageLayout": {
    "storage": [
      {
        "astId": 4246,
        "contract": "src/sales/MyCustomTieredSales.sol:MyCustomTieredSales",
        "label": "_status",
        "offset": 0,
        "slot": "0",
        "type": "t_uint256"
      }
    ],
    "types": {
      "t_uint256": {
        "encoding": "inplace",
        "label": "uint256",
        "numberOfBytes": "32"
      }
    }
  }
}